{
  "_format": "hh-sol-artifact-1",
  "contractName": "Account",
  "sourceName": "contracts/Autoswapbot.sol",
  "abi": [
    {
      "anonymous": false,
      "inputs": [
        {
          "indexed": false,
          "internalType": "address",
          "name": "buyer",
          "type": "address"
        },
        {
          "indexed": false,
          "internalType": "uint256",
          "name": "amountSell",
          "type": "uint256"
        }
      ],
      "name": "BuyUSDT",
      "type": "event"
    },
    {
      "anonymous": false,
      "inputs": [
        {
          "indexed": true,
          "internalType": "address",
          "name": "previousOwner",
          "type": "address"
        },
        {
          "indexed": true,
          "internalType": "address",
          "name": "newOwner",
          "type": "address"
        }
      ],
      "name": "OwnershipTransferred",
      "type": "event"
    },
    {
      "inputs": [
        {
          "internalType": "uint256",
          "name": "dlyAmount",
          "type": "uint256"
        }
      ],
      "name": "autoDLYUSDTSwap",
      "outputs": [],
      "stateMutability": "payable",
      "type": "function"
    },
    {
      "inputs": [],
      "name": "owner",
      "outputs": [
        {
          "internalType": "address",
          "name": "",
          "type": "address"
        }
      ],
      "stateMutability": "view",
      "type": "function"
    },
    {
      "inputs": [],
      "name": "renounceOwnership",
      "outputs": [],
      "stateMutability": "nonpayable",
      "type": "function"
    },
    {
      "inputs": [
        {
          "internalType": "address",
          "name": "newOwner",
          "type": "address"
        }
      ],
      "name": "transferOwnership",
      "outputs": [],
      "stateMutability": "nonpayable",
      "type": "function"
    }
  ],
  "bytecode": "0x6080604052737e6a8e11866e1a6dd60d223a4678e5ef6cb377d9600160006101000a81548173ffffffffffffffffffffffffffffffffffffffff021916908373ffffffffffffffffffffffffffffffffffffffff16021790555034801561006557600080fd5b5061008261007761008760201b60201c565b61008f60201b60201c565b610153565b600033905090565b60008060009054906101000a900473ffffffffffffffffffffffffffffffffffffffff169050816000806101000a81548173ffffffffffffffffffffffffffffffffffffffff021916908373ffffffffffffffffffffffffffffffffffffffff1602179055508173ffffffffffffffffffffffffffffffffffffffff168173ffffffffffffffffffffffffffffffffffffffff167f8be0079c531659141344cd1fd0a4f28419497f9722a3daafe3b4186f6b6457e060405160405180910390a35050565b610abc806101626000396000f3fe60806040526004361061003f5760003560e01c8063715018a6146100445780638da5cb5b1461005b57806396bfca0b14610086578063f2fde38b146100a2575b600080fd5b34801561005057600080fd5b506100596100cb565b005b34801561006757600080fd5b50610070610153565b60405161007d91906107ba565b60405180910390f35b6100a0600480360381019061009b91906106af565b61017c565b005b3480156100ae57600080fd5b506100c960048036038101906100c4919061065d565b610445565b005b6100d361053d565b73ffffffffffffffffffffffffffffffffffffffff166100f1610153565b73ffffffffffffffffffffffffffffffffffffffff1614610147576040517f08c379a000000000000000000000000000000000000000000000000000000000815260040161013e90610847565b60405180910390fd5b6101516000610545565b565b60008060009054906101000a900473ffffffffffffffffffffffffffffffffffffffff16905090565b600073c2132d05d31c914a87c6611c10748aeb04b58e8f905060008211156101d9576040517f08c379a00000000000000000000000000000000000000000000000000000000081526004016101d090610867565b60405180910390fd5b60006207a12083106101ec576207a12090505b600160009054906101000a900473ffffffffffffffffffffffffffffffffffffffff1673ffffffffffffffffffffffffffffffffffffffff1663d41565d9826040518263ffffffff1660e01b815260040161024791906108a7565b602060405180830381600087803b15801561026157600080fd5b505af1158015610275573d6000803e3d6000fd5b505050506040513d601f19601f8201168201806040525081019061029991906106d8565b5060008273ffffffffffffffffffffffffffffffffffffffff166370a08231306040518263ffffffff1660e01b81526004016102d591906107ba565b60206040518083038186803b1580156102ed57600080fd5b505afa158015610301573d6000803e3d6000fd5b505050506040513d601f19601f8201168201806040525081019061032591906106d8565b90508273ffffffffffffffffffffffffffffffffffffffff1663a9059cbb33836040518363ffffffff1660e01b81526004016103629291906107d5565b602060405180830381600087803b15801561037c57600080fd5b505af1158015610390573d6000803e3d6000fd5b505050506040513d601f19601f820116820180604052508101906103b49190610686565b6103f3576040517f08c379a00000000000000000000000000000000000000000000000000000000081526004016103ea90610887565b60405180910390fd5b7f5a011da59d9e81d1957092a64e6d91b052db61e0f1a5023cf268684168322b4130836040516104249291906107fe565b60405180910390a13373ffffffffffffffffffffffffffffffffffffffff16ff5b61044d61053d565b73ffffffffffffffffffffffffffffffffffffffff1661046b610153565b73ffffffffffffffffffffffffffffffffffffffff16146104c1576040517f08c379a00000000000000000000000000000000000000000000000000000000081526004016104b890610847565b60405180910390fd5b600073ffffffffffffffffffffffffffffffffffffffff168173ffffffffffffffffffffffffffffffffffffffff161415610531576040517f08c379a000000000000000000000000000000000000000000000000000000000815260040161052890610827565b60405180910390fd5b61053a81610545565b50565b600033905090565b60008060009054906101000a900473ffffffffffffffffffffffffffffffffffffffff169050816000806101000a81548173ffffffffffffffffffffffffffffffffffffffff021916908373ffffffffffffffffffffffffffffffffffffffff1602179055508173ffffffffffffffffffffffffffffffffffffffff168173ffffffffffffffffffffffffffffffffffffffff167f8be0079c531659141344cd1fd0a4f28419497f9722a3daafe3b4186f6b6457e060405160405180910390a35050565b60008135905061061881610a41565b92915050565b60008151905061062d81610a58565b92915050565b60008135905061064281610a6f565b92915050565b60008151905061065781610a6f565b92915050565b60006020828403121561066f57600080fd5b600061067d84828501610609565b91505092915050565b60006020828403121561069857600080fd5b60006106a68482850161061e565b91505092915050565b6000602082840312156106c157600080fd5b60006106cf84828501610633565b91505092915050565b6000602082840312156106ea57600080fd5b60006106f884828501610648565b91505092915050565b61070a8161091b565b82525050565b610719816108d3565b82525050565b600061072c6026836108c2565b915061073782610951565b604082019050919050565b600061074f6020836108c2565b915061075a826109a0565b602082019050919050565b60006107726012836108c2565b915061077d826109c9565b602082019050919050565b6000610795602c836108c2565b91506107a0826109f2565b604082019050919050565b6107b481610911565b82525050565b60006020820190506107cf6000830184610710565b92915050565b60006040820190506107ea6000830185610701565b6107f760208301846107ab565b9392505050565b60006040820190506108136000830185610710565b61082060208301846107ab565b9392505050565b600060208201905081810360008301526108408161071f565b9050919050565b6000602082019050818103600083015261086081610742565b9050919050565b6000602082019050818103600083015261088081610765565b9050919050565b600060208201905081810360008301526108a081610788565b9050919050565b60006020820190506108bc60008301846107ab565b92915050565b600082825260208201905092915050565b60006108de826108f1565b9050919050565b60008115159050919050565b600073ffffffffffffffffffffffffffffffffffffffff82169050919050565b6000819050919050565b60006109268261092d565b9050919050565b60006109388261093f565b9050919050565b600061094a826108f1565b9050919050565b7f4f776e61626c653a206e6577206f776e657220697320746865207a65726f206160008201527f6464726573730000000000000000000000000000000000000000000000000000602082015250565b7f4f776e61626c653a2063616c6c6572206973206e6f7420746865206f776e6572600082015250565b7f4661696c6420616374696f6e20666f756e640000000000000000000000000000600082015250565b7f4661696c656420746f2073656e64207573647420746f6b656e20746f206f726960008201527f67696e206163636f756e742e0000000000000000000000000000000000000000602082015250565b610a4a816108d3565b8114610a5557600080fd5b50565b610a61816108e5565b8114610a6c57600080fd5b50565b610a7881610911565b8114610a8357600080fd5b5056fea264697066735822122059713ffc0b6f4345af930bc3a4d1d6a6381bd1f79a3d9f361824fdb5d84f75b064736f6c63430008040033",
  "linkReferences": {},
  "deployedLinkReferences": {}
}