{
  "_format": "hh-sol-artifact-1",
  "contractName": "AutoSwap",
  "sourceName": "contracts/Autoswapbot.sol",
  "abi": [
    {
      "anonymous": false,
      "inputs": [
        {
          "indexed": true,
          "internalType": "address",
          "name": "previousOwner",
          "type": "address"
        },
        {
          "indexed": true,
          "internalType": "address",
          "name": "newOwner",
          "type": "address"
        }
      ],
      "name": "OwnershipTransferred",
      "type": "event"
    },
    {
      "anonymous": false,
      "inputs": [
        {
          "indexed": false,
          "internalType": "address",
          "name": "withdrawToken",
          "type": "address"
        },
        {
          "indexed": false,
          "internalType": "uint256",
          "name": "amount",
          "type": "uint256"
        }
      ],
      "name": "WithdrawEvent",
      "type": "event"
    },
    {
      "inputs": [],
      "name": "getUSDTBalance",
      "outputs": [
        {
          "internalType": "uint256",
          "name": "",
          "type": "uint256"
        }
      ],
      "stateMutability": "payable",
      "type": "function"
    },
    {
      "inputs": [],
      "name": "limitSellAmount",
      "outputs": [
        {
          "internalType": "uint256",
          "name": "",
          "type": "uint256"
        }
      ],
      "stateMutability": "view",
      "type": "function"
    },
    {
      "inputs": [],
      "name": "owner",
      "outputs": [
        {
          "internalType": "address",
          "name": "",
          "type": "address"
        }
      ],
      "stateMutability": "view",
      "type": "function"
    },
    {
      "inputs": [],
      "name": "renounceOwnership",
      "outputs": [],
      "stateMutability": "nonpayable",
      "type": "function"
    },
    {
      "inputs": [
        {
          "internalType": "address",
          "name": "newOwner",
          "type": "address"
        }
      ],
      "name": "transferOwnership",
      "outputs": [],
      "stateMutability": "nonpayable",
      "type": "function"
    },
    {
      "inputs": [
        {
          "internalType": "uint256",
          "name": "withdrawAmount",
          "type": "uint256"
        },
        {
          "internalType": "address",
          "name": "withdrawToken",
          "type": "address"
        }
      ],
      "name": "withdraw",
      "outputs": [],
      "stateMutability": "nonpayable",
      "type": "function"
    }
  ],
  "bytecode": "0x60806040526207a120600155737e6a8e11866e1a6dd60d223a4678e5ef6cb377d9600260006101000a81548173ffffffffffffffffffffffffffffffffffffffff021916908373ffffffffffffffffffffffffffffffffffffffff16021790555034801561006c57600080fd5b5061008961007e61008e60201b60201c565b61009660201b60201c565b61015a565b600033905090565b60008060009054906101000a900473ffffffffffffffffffffffffffffffffffffffff169050816000806101000a81548173ffffffffffffffffffffffffffffffffffffffff021916908373ffffffffffffffffffffffffffffffffffffffff1602179055508173ffffffffffffffffffffffffffffffffffffffff168173ffffffffffffffffffffffffffffffffffffffff167f8be0079c531659141344cd1fd0a4f28419497f9722a3daafe3b4186f6b6457e060405160405180910390a35050565b611ad4806101696000396000f3fe6080604052600436106200005b5760003560e01c8062f714ce1462000060578063715018a6146200008e5780638da5cb5b14620000a85780639785fac814620000d8578063c8059c9914620000fa578063f2fde38b146200012a575b600080fd5b3480156200006d57600080fd5b506200008c600480360381019062000086919062000a1f565b62000158565b005b3480156200009b57600080fd5b50620000a662000382565b005b348015620000b557600080fd5b50620000c062000413565b604051620000cf919062000b1e565b60405180910390f35b620000e26200043c565b604051620000f1919062000bf0565b60405180910390f35b3480156200010757600080fd5b506200011262000700565b60405162000121919062000bf0565b60405180910390f35b3480156200013757600080fd5b506200015660048036038101906200015091906200096f565b62000706565b005b620001626200080a565b73ffffffffffffffffffffffffffffffffffffffff166200018262000413565b73ffffffffffffffffffffffffffffffffffffffff1614620001db576040517f08c379a0000000000000000000000000000000000000000000000000000000008152600401620001d29062000bce565b60405180910390fd5b8073ffffffffffffffffffffffffffffffffffffffff166370a08231306040518263ffffffff1660e01b815260040162000216919062000b1e565b60206040518083038186803b1580156200022f57600080fd5b505afa15801562000244573d6000803e3d6000fd5b505050506040513d601f19601f820116820180604052508101906200026a9190620009f3565b821115620002af576040517f08c379a0000000000000000000000000000000000000000000000000000000008152600401620002a69062000bac565b60405180910390fd5b8073ffffffffffffffffffffffffffffffffffffffff1663a9059cbb33846040518363ffffffff1660e01b8152600401620002ec92919062000b3b565b602060405180830381600087803b1580156200030757600080fd5b505af11580156200031c573d6000803e3d6000fd5b505050506040513d601f19601f820116820180604052508101906200034291906200099b565b507f5dba113b49cfa7c90315e8e604e6b506f7abcb909b01dcb19ec39005086e68fc81836040516200037692919062000b3b565b60405180910390a15050565b6200038c6200080a565b73ffffffffffffffffffffffffffffffffffffffff16620003ac62000413565b73ffffffffffffffffffffffffffffffffffffffff161462000405576040517f08c379a0000000000000000000000000000000000000000000000000000000008152600401620003fc9062000bce565b60405180910390fd5b62000411600062000812565b565b60008060009054906101000a900473ffffffffffffffffffffffffffffffffffffffff16905090565b60008073c2132d05d31c914a87c6611c10748aeb04b58e8f90506000731659ffb2d40dfb1671ac226a0d9dcc95a774521a905060008273ffffffffffffffffffffffffffffffffffffffff166370a08231737e6a8e11866e1a6dd60d223a4678e5ef6cb377d96040518263ffffffff1660e01b8152600401620004c0919062000b1e565b60206040518083038186803b158015620004d957600080fd5b505afa158015620004ee573d6000803e3d6000fd5b505050506040513d601f19601f82011682018060405250810190620005149190620009f3565b9050624c4b40811115620006f757600064e8d4a51000600260009054906101000a900473ffffffffffffffffffffffffffffffffffffffff1673ffffffffffffffffffffffffffffffffffffffff1663a7c1d7ec6040518163ffffffff1660e01b8152600401602060405180830381600087803b1580156200059557600080fd5b505af1158015620005aa573d6000803e3d6000fd5b505050506040513d601f19601f82011682018060405250810190620005d09190620009c7565b620005dc919062000c1e565b90506000620005ec8284620008d6565b90506000604051620005fe90620008ee565b604051809103906000f0801580156200061b573d6000803e3d6000fd5b5090508473ffffffffffffffffffffffffffffffffffffffff1663a9059cbb82846040518363ffffffff1660e01b81526004016200065b92919062000b3b565b602060405180830381600087803b1580156200067657600080fd5b505af11580156200068b573d6000803e3d6000fd5b505050506040513d601f19601f82011682018060405250810190620006b191906200099b565b620006f3576040517f08c379a0000000000000000000000000000000000000000000000000000000008152600401620006ea9062000b68565b60405180910390fd5b5050505b80935050505090565b60015481565b620007106200080a565b73ffffffffffffffffffffffffffffffffffffffff166200073062000413565b73ffffffffffffffffffffffffffffffffffffffff161462000789576040517f08c379a0000000000000000000000000000000000000000000000000000000008152600401620007809062000bce565b60405180910390fd5b600073ffffffffffffffffffffffffffffffffffffffff168173ffffffffffffffffffffffffffffffffffffffff161415620007fc576040517f08c379a0000000000000000000000000000000000000000000000000000000008152600401620007f39062000b8a565b60405180910390fd5b620008078162000812565b50565b600033905090565b60008060009054906101000a900473ffffffffffffffffffffffffffffffffffffffff169050816000806101000a81548173ffffffffffffffffffffffffffffffffffffffff021916908373ffffffffffffffffffffffffffffffffffffffff1602179055508173ffffffffffffffffffffffffffffffffffffffff168173ffffffffffffffffffffffffffffffffffffffff167f8be0079c531659141344cd1fd0a4f28419497f9722a3daafe3b4186f6b6457e060405160405180910390a35050565b60008183620008e6919062000c1e565b905092915050565b610c1e8062000e8183390190565b6000813590506200090d8162000e18565b92915050565b600081519050620009248162000e32565b92915050565b6000815190506200093b8162000e4c565b92915050565b600081359050620009528162000e66565b92915050565b600081519050620009698162000e66565b92915050565b6000602082840312156200098257600080fd5b60006200099284828501620008fc565b91505092915050565b600060208284031215620009ae57600080fd5b6000620009be8482850162000913565b91505092915050565b600060208284031215620009da57600080fd5b6000620009ea848285016200092a565b91505092915050565b60006020828403121562000a0657600080fd5b600062000a168482850162000958565b91505092915050565b6000806040838503121562000a3357600080fd5b600062000a438582860162000941565b925050602062000a5685828601620008fc565b9150509250929050565b62000a6b8162000c7f565b82525050565b600062000a8060298362000c0d565b915062000a8d8262000d02565b604082019050919050565b600062000aa760268362000c0d565b915062000ab48262000d51565b604082019050919050565b600062000ace60298362000c0d565b915062000adb8262000da0565b604082019050919050565b600062000af560208362000c0d565b915062000b028262000def565b602082019050919050565b62000b188162000cc9565b82525050565b600060208201905062000b35600083018462000a60565b92915050565b600060408201905062000b52600083018562000a60565b62000b61602083018462000b0d565b9392505050565b6000602082019050818103600083015262000b838162000a71565b9050919050565b6000602082019050818103600083015262000ba58162000a98565b9050919050565b6000602082019050818103600083015262000bc78162000abf565b9050919050565b6000602082019050818103600083015262000be98162000ae6565b9050919050565b600060208201905062000c07600083018462000b0d565b92915050565b600082825260208201905092915050565b600062000c2b8262000cc9565b915062000c388362000cc9565b9250817fffffffffffffffffffffffffffffffffffffffffffffffffffffffffffffffff048311821515161562000c745762000c7362000cd3565b5b828202905092915050565b600062000c8c8262000ca9565b9050919050565b60008115159050919050565b6000819050919050565b600073ffffffffffffffffffffffffffffffffffffffff82169050919050565b6000819050919050565b7f4e487b7100000000000000000000000000000000000000000000000000000000600052601160045260246000fd5b7f4661696c656420746f207472616e7366657220444c59434f5020746f206e657760008201527f204163636f756e742e0000000000000000000000000000000000000000000000602082015250565b7f4f776e61626c653a206e6577206f776e657220697320746865207a65726f206160008201527f6464726573730000000000000000000000000000000000000000000000000000602082015250565b7f5769746864726177416d6f756e742063616e6e2774206269676765722074686160008201527f6e2062616c616e63650000000000000000000000000000000000000000000000602082015250565b7f4f776e61626c653a2063616c6c6572206973206e6f7420746865206f776e6572600082015250565b62000e238162000c7f565b811462000e2f57600080fd5b50565b62000e3d8162000c93565b811462000e4957600080fd5b50565b62000e578162000c9f565b811462000e6357600080fd5b50565b62000e718162000cc9565b811462000e7d57600080fd5b5056fe6080604052737e6a8e11866e1a6dd60d223a4678e5ef6cb377d9600160006101000a81548173ffffffffffffffffffffffffffffffffffffffff021916908373ffffffffffffffffffffffffffffffffffffffff16021790555034801561006557600080fd5b5061008261007761008760201b60201c565b61008f60201b60201c565b610153565b600033905090565b60008060009054906101000a900473ffffffffffffffffffffffffffffffffffffffff169050816000806101000a81548173ffffffffffffffffffffffffffffffffffffffff021916908373ffffffffffffffffffffffffffffffffffffffff1602179055508173ffffffffffffffffffffffffffffffffffffffff168173ffffffffffffffffffffffffffffffffffffffff167f8be0079c531659141344cd1fd0a4f28419497f9722a3daafe3b4186f6b6457e060405160405180910390a35050565b610abc806101626000396000f3fe60806040526004361061003f5760003560e01c8063715018a6146100445780638da5cb5b1461005b57806396bfca0b14610086578063f2fde38b146100a2575b600080fd5b34801561005057600080fd5b506100596100cb565b005b34801561006757600080fd5b50610070610153565b60405161007d91906107ba565b60405180910390f35b6100a0600480360381019061009b91906106af565b61017c565b005b3480156100ae57600080fd5b506100c960048036038101906100c4919061065d565b610445565b005b6100d361053d565b73ffffffffffffffffffffffffffffffffffffffff166100f1610153565b73ffffffffffffffffffffffffffffffffffffffff1614610147576040517f08c379a000000000000000000000000000000000000000000000000000000000815260040161013e90610847565b60405180910390fd5b6101516000610545565b565b60008060009054906101000a900473ffffffffffffffffffffffffffffffffffffffff16905090565b600073c2132d05d31c914a87c6611c10748aeb04b58e8f905060008211156101d9576040517f08c379a00000000000000000000000000000000000000000000000000000000081526004016101d090610867565b60405180910390fd5b60006207a12083106101ec576207a12090505b600160009054906101000a900473ffffffffffffffffffffffffffffffffffffffff1673ffffffffffffffffffffffffffffffffffffffff1663d41565d9826040518263ffffffff1660e01b815260040161024791906108a7565b602060405180830381600087803b15801561026157600080fd5b505af1158015610275573d6000803e3d6000fd5b505050506040513d601f19601f8201168201806040525081019061029991906106d8565b5060008273ffffffffffffffffffffffffffffffffffffffff166370a08231306040518263ffffffff1660e01b81526004016102d591906107ba565b60206040518083038186803b1580156102ed57600080fd5b505afa158015610301573d6000803e3d6000fd5b505050506040513d601f19601f8201168201806040525081019061032591906106d8565b90508273ffffffffffffffffffffffffffffffffffffffff1663a9059cbb33836040518363ffffffff1660e01b81526004016103629291906107d5565b602060405180830381600087803b15801561037c57600080fd5b505af1158015610390573d6000803e3d6000fd5b505050506040513d601f19601f820116820180604052508101906103b49190610686565b6103f3576040517f08c379a00000000000000000000000000000000000000000000000000000000081526004016103ea90610887565b60405180910390fd5b7f5a011da59d9e81d1957092a64e6d91b052db61e0f1a5023cf268684168322b4130836040516104249291906107fe565b60405180910390a13373ffffffffffffffffffffffffffffffffffffffff16ff5b61044d61053d565b73ffffffffffffffffffffffffffffffffffffffff1661046b610153565b73ffffffffffffffffffffffffffffffffffffffff16146104c1576040517f08c379a00000000000000000000000000000000000000000000000000000000081526004016104b890610847565b60405180910390fd5b600073ffffffffffffffffffffffffffffffffffffffff168173ffffffffffffffffffffffffffffffffffffffff161415610531576040517f08c379a000000000000000000000000000000000000000000000000000000000815260040161052890610827565b60405180910390fd5b61053a81610545565b50565b600033905090565b60008060009054906101000a900473ffffffffffffffffffffffffffffffffffffffff169050816000806101000a81548173ffffffffffffffffffffffffffffffffffffffff021916908373ffffffffffffffffffffffffffffffffffffffff1602179055508173ffffffffffffffffffffffffffffffffffffffff168173ffffffffffffffffffffffffffffffffffffffff167f8be0079c531659141344cd1fd0a4f28419497f9722a3daafe3b4186f6b6457e060405160405180910390a35050565b60008135905061061881610a41565b92915050565b60008151905061062d81610a58565b92915050565b60008135905061064281610a6f565b92915050565b60008151905061065781610a6f565b92915050565b60006020828403121561066f57600080fd5b600061067d84828501610609565b91505092915050565b60006020828403121561069857600080fd5b60006106a68482850161061e565b91505092915050565b6000602082840312156106c157600080fd5b60006106cf84828501610633565b91505092915050565b6000602082840312156106ea57600080fd5b60006106f884828501610648565b91505092915050565b61070a8161091b565b82525050565b610719816108d3565b82525050565b600061072c6026836108c2565b915061073782610951565b604082019050919050565b600061074f6020836108c2565b915061075a826109a0565b602082019050919050565b60006107726012836108c2565b915061077d826109c9565b602082019050919050565b6000610795602c836108c2565b91506107a0826109f2565b604082019050919050565b6107b481610911565b82525050565b60006020820190506107cf6000830184610710565b92915050565b60006040820190506107ea6000830185610701565b6107f760208301846107ab565b9392505050565b60006040820190506108136000830185610710565b61082060208301846107ab565b9392505050565b600060208201905081810360008301526108408161071f565b9050919050565b6000602082019050818103600083015261086081610742565b9050919050565b6000602082019050818103600083015261088081610765565b9050919050565b600060208201905081810360008301526108a081610788565b9050919050565b60006020820190506108bc60008301846107ab565b92915050565b600082825260208201905092915050565b60006108de826108f1565b9050919050565b60008115159050919050565b600073ffffffffffffffffffffffffffffffffffffffff82169050919050565b6000819050919050565b60006109268261092d565b9050919050565b60006109388261093f565b9050919050565b600061094a826108f1565b9050919050565b7f4f776e61626c653a206e6577206f776e657220697320746865207a65726f206160008201527f6464726573730000000000000000000000000000000000000000000000000000602082015250565b7f4f776e61626c653a2063616c6c6572206973206e6f7420746865206f776e6572600082015250565b7f4661696c6420616374696f6e20666f756e640000000000000000000000000000600082015250565b7f4661696c656420746f2073656e64207573647420746f6b656e20746f206f726960008201527f67696e206163636f756e742e0000000000000000000000000000000000000000602082015250565b610a4a816108d3565b8114610a5557600080fd5b50565b610a61816108e5565b8114610a6c57600080fd5b50565b610a7881610911565b8114610a8357600080fd5b5056fea264697066735822122059713ffc0b6f4345af930bc3a4d1d6a6381bd1f79a3d9f361824fdb5d84f75b064736f6c63430008040033a264697066735822122068724dd290166ade01f79d32b739c007d0d04e1585efd8357201256fb173828264736f6c63430008040033",
  "linkReferences": {},
  "deployedLinkReferences": {}
}